:020000040001F9
:10400000D03400208142010093420100954201001A
:1040100000000000000000000000000000000000A0
:1040200000000000000000000000000097420100B6
:104030000000000000000000994201009B420100C6
:104040009D4201009D420100E15001009D4201009E
:104050009D420100000000009D4201009D420100C0
:104060009D420100794A01009D4201007B48010008
:104070009D4201009D4201009D4201009D420100C0
:104080009D420100DB7E01009D4201009D42010036
:10409000097F01009D4201008B7501009D420100D6
:1040A0009D4201009D420100000000000000000050
:1040B0000000000000000000000000000000000000
:1040C00000F002F800F040F80CA030C808382418BE
:1040D0002D18A246671EAB4654465D46AC4201D140
:1040E00000F032F87E460F3E0FCCB6460126334232
:1040F00000D0FB1AA246AB46334318478046000067
:10410000A0460000103A02D378C878C1FAD8520706
:1041100001D330C830C101D504680C60704700007D
:104120000023002400250026103A01D378C1FBD8D3
:10413000520700D330C100D50B6070471FB5C04691
:10414000C0461FBD10B510BD04F065FA1146FFF75B
:10415000F5FF00F02DF904F07DFA03B4FFF7F2FF4C
:1041600003BC04F081FA0000401E00BF00BF00BF86
:1041700000BF00BF00BF00BF00BF00BF00BF00BF47
:1041800000BFF1D170470000401E00BF00BF00BF5C
:1041900000BF00BF00BF00BF00BF00BF00BF00BF27
:1041A00000BFF1D170470000401E00BF00BF00BF3C
:1041B00000BF00BF00BF00BF00BF00BF00BF00BF07
:1041C00000BFF1D170470000401E00BF00BF00BF1C
:1041D00000BF00BF00BF00BF00BF00BF00BF00BFE7
:1041E00000BFF1D170470000401E00BF00BF00BFFC
:1041F00000BF00BF00BF00BF00BF00BF00BF00BFC7
:1042000000BFF1D170470000401E00BF00BF00BFDB
:1042100000BF00BF00BF00BF00BF00BF00BF00BFA6
:1042200000BFF1D170470000401E00BF00BF00BFBB
:1042300000BF00BF00BF00BF00BF00BF00BF00BF86
:1042400000BFF1D17047000070B505460C46164618
:1042500002E00FCC0FC5103E102EFAD2082E02D36A
:1042600003CC03C5083E042E07D301CC01C5361F7D
:1042700003E021782970641C6D1C761EF9D270BD94
:104280000A48026803210A43026009488047094836
:104290000047FEE7FEE7FEE7FEE7FEE7FEE7000079
:1042A00005480649064A074B7047000024050040B0
:1042B0006D430100C1400100D0240020D034002013
:1042C000D02C0020D02C00203248334908607047A1
:1042D0003248008CC0B2012812D13048808C0007CF
:1042E000000F00280CD12D48806AF021084040289A
:1042F00006D12A48C06A0840002801D10120704731
:104300000020FCE72548008CC0B201282CD12348AE
:10431000808C0007000F002826D12048806AF021F9
:104320000840002806D11D48C06A0840002801D175
:10433000012070471948806AF0210840102806D1F2
:104340001648C06A0840002801D10120F1E713484F
:10435000806AF0210840302806D11048C06A084021
:10436000002801D10120E4E70020E2E710B5FFF7C3
:10437000C9FF002805D00A480A494860C8130A49FD
:104380008861FFF7A5FF002802D001200749886057
:1043900010BD00000024F40000200020C00F00F039
:1043A000DFFF07C000050040006C00400006004031
:1043B0000C2000F06AF80D2000F067F80D2000F0E6
:1043C0006DF80C2000F06AF80E2406E0204600F09C
:1043D0005CF8204600F062F8641C172CF6DD3248C9
:1043E000FFF7C2FE00F0ECFB1B2000F082F81A2061
:1043F00000F07FF82D48FFF7B7FE00F0E9FB00F072
:1044000057FE00F06CFE00F02CFE00F0F8FB00F010
:104410006EFC00F02FFC00F0BFFC00F07EFC00F012
:104420003DF900F0C0F800220321012000F04AFA13
:104430001F49086000220121104600F043FA1D497F
:1044400008600846006801F07EFC1948006802F028
:1044500006F81848006801F03FFD1548006802F0B2
:1044600080F91B2000F03EF81A2000F03BF81248BB
:10447000FFF77AFE1B2000F03CF800F049FB00F04B
:104480005FFB00BF00F052FEFCE70121052212078E
:1044900007231B02D2188300D150704701218140AD
:1044A000064AD1607047000040420F00A08601001C
:1044B0000420002008200020E093040000050050A4
:1044C00070B5024610460B4608E0012405252D076D
:1044D00007263602AD198600AC51401C9842F4D92B
:1044E00000BF70BD00BF01218140054A916000BF3F
:1044F000704700BF01218140014AD16000BF704771
:104500000005005070B505460C461646072C19D814
:104510002846482108430121A14009020843514986
:10452000486001200860002E0CD04F4948600121EE
:10453000072000F05FF80720012181404B4A1160FD
:1045400000BF00BF70BD1A204649486001200860C6
:1045500070470121464A116000BF46490968002999
:10456000FBD00021434A11603E4988687047F8B586
:10457000FFF7EFFF074604F04BF806463E4904F00C
:104580007BF805463D4904F077F804468921C905C2
:1045900003F062FFF8BD00B5FFF7DBFFE121090181
:1045A0004843800A00BD10B5002202210846FFF7EB
:1045B000A9FF002203211046FFF7A4FF10BD00B59C
:1045C00000235B1CFFF7C5FF034600BD10B50022AA
:1045D00002210846FFF796FFFFF7BBFFC0B210BDF0
:1045E00010B5002203210220FFF78CFFFFF7B1FF77
:1045F000C0B210BD10B5002819DA214A03071B0FFD
:10460000083B9B089B00D2588307DC0EFF23A34086
:104610009A438B071B0E8407E40EA3401A43184BE2
:104620000407240F083CA408A4001A5118E00F4AFC
:1046300003231B02D21883089B00D2588307DC0E89
:10464000FF23A3409A438B071B0E8407E40EA3406D
:104650001A43064B032424021B198408A4001A5190
:1046600010BD0000007500400073004000E100E054
:104670000070004000710040000040409A99993F4E
:104680001CED00E030B513048C00234305242407FF
:1046900007252D0264198500635130BD10B5032133
:1046A000002000F07DF8032211460020FFF7EAFF0A
:1046B00003211E2000F074F810BD70B500204049A1
:1046C0000969C140C907C90F002965D13D48006883
:1046D000401C3C490860084600687D210901884269
:1046E0005DD31A20FFF7FEFE1B20FFF7FBFE03221F
:1046F00011460020FFF7C6FF3348006802F022F899
:104700003248006801F0E1FB3148FFF73DFD1B2016
:10471000FFF7EFFE1A20FFF7ECFE1C2000F04AF82E
:10472000042000F047F81D2000F044F8032000F0BA
:1047300041F80B2000F03EF80A2000F03BF8092079
:1047400000F038F8082000F035F8072000F032F8C3
:10475000062000F02FF8052000F02CF80D2000F0C6
:1047600029F80C2000F026F8092001218140194A7F
:10477000116000BF1648FFF707FD31DF044600BF98
:104780002546002D06D000BF13A24D21284600F07B
:1047900005FA00BF00BF02E000200A49086070BDB2
:1047A00010B58A0005231B07072424021B19840067
:1047B0001A5110BD01218140014AD16070470000AB
:1047C000000500500C2000200420002008200020BC
:1047D00040420F0080E100E04B45592E630000008D
:1047E000002906D100BF012282402E4BDA6000BFB3
:1047F00006E000BF012282402A4B9A6000BF00BF42
:10480000704701202849886100202849486001201C
:104810008107886000BF254840680028FBD0002041
:104820002249486070470B2001218140204A1160D5
:1048300000BF20482049886018201F494031086087
:1048400001201E4948601D494039486000041B4949
:1048500048601A4940394860704710B51A2000F086
:1048600018F81B2000F015F800211A20FFF7B8FFF8
:1048700000211B20FFF7B4FF10BD704710B5FFF7F4
:10488000ECFFFFF7BEFFFFF7CEFF01200C490860E9
:1048900010BD01210522120707231B02D218830035
:1048A000D150704700050050000500400001004055
:1048B00000E100E0FF0F000000B5004040B3004001
:1048C00000B00040F7B506460F46002E01D16748FC
:1048D00000E067480446002E1ED10B2000F0AEF821
:1048E0000A2000F0ABF80021092000F0B0F8072002
:1048F00000F0A4F80B2005210902611888600A2045
:10490000C1016118C8600920052109026118086108
:10491000072000F0A6F81EE01D2000F08FF81C20F4
:1049200000F08CF80021042000F091F8032000F042
:1049300085F81D2005210902611888601C200521C9
:1049400009026118C8600420052109026118086184
:10495000032000F086F801200007052109026118F4
:104960004862002F06D0012F06D0022F06D0032F59
:1049700008D105E0002507E0022505E0042503E055
:10498000062501E0002500BF00BF0298002806D0E0
:1049900001202843052109026118486503E005202C
:1049A0000002201845650021FF2009300151012037
:1049B00005210902611808602046FEBDFFB581B0DF
:1049C00000270026019D2948019D854201D1072429
:1049D00000E0032400BF0120A0402649C86000BFBA
:1049E00027E00398805D052109026918C86100E08D
:1049F0007F1CFF2009304059002803D10320000309
:104A00008742F5D303200003874205D1204600F0FA
:104A100028F8002005B0F0BD0021FF2009304151E9
:104A20000520000228188069C1B204988155701CC5
:104A300086B202988642D4DB0120EBE701210522F1
:104A4000120707231B02D2188300D150704710B5FC
:104A50008A0005231B07072424021B1984001A510E
:104A600010BD01218140034A916070470030004031
:104A7000004000400005005035480088401C344983
:104A8000088008460088642804DD00200880012092
:104A90003049087030480078401C2F4908702F4872
:104AA0000088401C2D4908802D480068401C2C4976
:104AB00008602A4800887D210901884209DB2848CE
:104AC0000068884202DA0020254908600020234956
:104AD000088024480078002806D10D20012181405B
:104AE000214AD16000BF0AE01E480078012806D1A3
:104AF0000D20012181401C4A916000BF00BF1B486E
:104B00000078002800D000BF0020194908607047D5
:104B10000020184948600861886001201649C86073
:104B20001349C03108607D20C0011249403108603E
:104B3000012000041149486001200F4908607047B6
:104B40000920012181400E4A116000BF62B6704702
:104B5000162000201020002011200020142000200A
:104B60008820002012200020000500501320002083
:104B700040910040009500400090004000930040AC
:104B800000E100E030B513048C0023430524240722
:104B900007252D0264198500635130BD00BFBFF3A6
:104BA0004F8FFE48FE49C860BFF34F8F00BF00BF64
:104BB000FEE703460C4622461946FA48FFF7EEFF89
:104BC00010B51A2000F08DFA1B2000F08AFA10BDF3
:104BD00038B500BF0020F44B05220221009003F0FD
:104BE00097F9044600BF2346002B05D000BFEFA273
:104BF0005D211846FFF7D2FF00BF00BF38BD3EB5AC
:104C000000BF6846007801090901491C0091684607
:104C10000078F02188431030009000BF0422E5A105
:104C200068467CDF044600BF2346002B05D000BF4A
:104C3000DEA271211846FFF7B1FF00BF00200190EE
:104C400002901021684681803C21C18000210181B1
:104C5000FF219131418101A87ADF044600BF23463C
:104C6000002B05D000BFD1A27B211846FFF796FF8D
:104C700000BF3EBD10B5A0B005210191CF4800682E
:104C80000090CF480178684681703C2111A803F05C
:104C900030FB02201190002110A841720121818176
:104CA00001A914913C2102A803F023FB01216846CD
:104CB000818469460A9102A911A802F0F4F9044618
:104CC00000BF2346002B05D000BFB8A2982118468C
:104CD000FFF764FF00BF20B010BD70B504460D465D
:104CE000164632462946204600F0ACFD70BD38B568
:104CF00000200090B34800906946B14801F0ABFE37
:104D0000044600BF2346002B05D000BFA7A2DB212D
:104D10001846FFF743FF00BF38BD1E20AA49088090
:104D20000846807840084000401C8870084680781B
:104D300002218843A4498870084680781C21884352
:104D40000C30A149887008468078202188439E490C
:104D500088700720C87010200871704770B505462C
:104D6000286800280FD13B219848008876DF044648
:104D700000BF2346002B05D000BF8CA2FF211846A0
:104D8000FFF70CFF00BF70BD034600BF87A2FF21E5
:104D90000B311846FFF702FF10B588B01C2101A89F
:104DA00003F0A7FA00200190052040040290801033
:104DB00003900321684601740021418201758448F3
:104DC00006908448079001A802F009FA044600BF43
:104DD0002346002B06D000BF74A2FF2122311846C3
:104DE000FFF7DCFE00BF08B010BD10B586B000BFF5
:104DF000142101A803F07DFA00216846017100200A
:104E000002906846017340218182B421C18201A8C9
:104E100073DF04461A2000F06DF906B010BD70B5BE
:104E20000546288814284ED006DC10280BD01128FF
:104E300013D0132872D11AE017283ED019286FD04A
:104E40005228F7D126E01B2000F054F91A2000F078
:104E500056F9A8885D490880F4E01B2000F04FF95E
:104E60000020C04359490880FFF7BFFFEAE0564AD7
:104E70000021564800887FDF044600BF2346002BF0
:104E800006D000BF49A2FF2160311846FFF786FE19
:104E900000BFD7E0002211464C480088A9DF044635
:104EA00000BF2346002B06D000BF40A2FF21653182
:104EB0001846FFF773FE00BFC4E03222A91D464822
:104EC00003F0B8F9BEE0444EB61D3188E88981424E
:104ED00011D1002231463D48008881DF044600BFE1
:104EE0002346002B06D000BF30A2FF2171311846A7
:104EF000FFF754FE11E0002211463448008881DF9C
:104F0000044600BF2346002B06D000BF27A2FF2186
:104F100077311846FFF742FE00BF93E091E0FFE7CC
:104F2000A87900287ED1FFF760FF2C480068401C5C
:104F30002A49086008460068022873D11A2000F048
:104F4000DEF8032211460020FFF71CFE244800680B
:104F500001F0F8FB2348006800F0B7FF2248FFF794
:104F600023F91B20FFF7C5FA1A20FFF7C2FA1C200D
:104F700000F0C5F8042000F0C2F81D2000F0BFF8D2
:104F8000032000F0BCF80B2000F0B9F80A2000F074
:104F9000B6F8092000F0B3F8082027E00400FA056D
:104FA00000ED00E0EFBEADDE18210020424C452EA2
:104FB000630000004D445A5700000000288701009C
:104FC00034240020DB4C0100182000201E2000208B
:104FD0005D4D0100894D010030230020202000207C
:104FE000042000200820002040420F0000F087F835
:104FF000072000F084F8062000F081F8052000F07A
:105000007EF80D2000F07BF80C2000F078F80920E5
:10501000012181403C4A116000BF3C48FFF7C4F8C1
:1050200031DF00E00CE0044600BF2346002B06D031
:1050300000BF374AFF21B2311846FFF7AFFD00BF6E
:1050400000E000BF00BF70BD10B50446204602F06E
:105050009AF921462F4801F0DBFC2046FFF7DFFEDE
:1050600010BD70B500BF002350222B49184602F036
:1050700044FA054600BF2B46002B06D000BF244A49
:10508000FF21D7311846FFF789FD00BF00BF234835
:1050900002F069FA044600BF2346002B06D000BF89
:1050A0001B4AFF21DC311846FFF778FD00BF70BDB9
:1050B00010B5032211460020FFF764FD10BD10B5A6
:1050C0003DDF044600BF2346002B06D000BF104A38
:1050D000FF21EE311846FFF761FD00BF10BD70479C
:1050E000704701210522120707231B02D2188300F3
:1050F000D150704701218140094A916070470121D8
:105100008140074AD160704780E100E040420F00D3
:10511000AC4F0100342400206423002049500100DA
:10512000000500500020FE490860704770B586B049
:10513000FC480078FC490968884201D106B070BD7E
:10514000F8480078F8490860FFF7ECFFF748006876
:10515000401CF6490860084600687D21C900884265
:1051600002DB0020F1490860FFF7A7FAF048006869
:1051700000287CD1EF480068002807DCFFF730FAF0
:10518000AF2874DCFFF72CFAAF28FADC0020EA49DC
:105190000860EA490860E7480068C82806DC1B2068
:1051A000FFF7A0F91A20FFF79DF905E01B20FFF794
:1051B000A0F91A20FFF79DF9DE480068401CDD4980
:1051C0000860DF480068401CDD490860D948006875
:1051D000FF219131884202DB0120D6490860D8487E
:1051E00000687D210901884268DB1A20FFF77AF9FF
:1051F0001B20FFF777F9002003210A4613048D00D6
:105200002B4305252D0707263602AD198600AB5125
:1052100000BFCC48006801F095FACB48006800F068
:1052200054FECA48FEF7D0FF1B20FFF762F91A2090
:10523000FFF75FF91C2000F0C4FA042000F0C1FA67
:105240001D2000F0BEFA032000F0BBFA0B2000F096
:10525000B8FA0A2000F0B5FA092000F0B2FA0820E6
:1052600000F0AFFA072000F0ACFA062000E022E0E0
:1052700000F0A7FA052000F0A4FA0D2000F0A1FA32
:105280000C2000F09EFA092001218140B04A1160F3
:1052900000BFB048FEF798FF31DF044600BF254647
:1052A000002D06D000BFACA26F212846FFF776FC88
:1052B00000BF00BF02E002209F4908609E480068CE
:1052C000022813D19D48006800280FD000209A4979
:1052D00008601B20FFF70DF9FFF787FDFFF7EFFED2
:1052E00000209649086001209149086090480068B4
:1052F00000287DD09B48007800287AD09A48007812
:10530000002876D19849087098480068002803D191
:105310009749087097490870944800880004000E67
:1053200093490870914800789249087092498548DD
:10533000006801F04BF991480178684601728C4889
:105340000178684641728B480178684681728A49C3
:105350000620085EFF210902084001126846C1725A
:10536000854881796846017383480821415EFF20A2
:10537000000201400912684641737F48017A68467D
:1053800081737D480A21415EFF200002014009121D
:105390006846C1737848817A6846017476480C2162
:1053A000415EFF20000201400912684641747248C4
:1053B000017B6846817470480E21415EFF20000227
:1053C000014009126846C1746B48817B68460175CB
:1053D00000BF0D2202A96A4801F07DFB0028F8D128
:1053E00001206849087061480068401C5F4901E07D
:1053F000E5E145E0086028215C48006802F085FF8F
:10540000002903D11A20FFF76DF802E01A20FFF7F8
:1054100070F8564800684B21490188422FDB5AA199
:1054200003C90191009055480178684601715848B8
:10543000017868464171574801786846817100BF1C
:10544000072269464E4801F046FB0028F8D145493D
:1054500008704649086047490870454908700120AE
:105460004D490870002048600123084606C83548A9
:10547000006801F010F91A20FFF73BF800BF00BFE9
:1054800039480078002849D044480078002845D1A0
:105490003449087023480078102840DB40480068F1
:1054A000002829D13FA103C9059104903348017810
:1054B0006846017536480178684641753548017877
:1054C0006846817500BF072204A92D4801F003FB3F
:1054D0000028F8D10F2030490870002048600023D0
:1054E000084606C81748006801F0D5F80020204992
:1054F00008702049087000BF294800880004000E89
:105500001B490870264800781A49087027490E4838
:10551000006800F073FC25490A4849E097E067E01D
:105520008820002011200020982000208C200020BE
:1055300034200020902000202C2000203820002043
:1055400094200020042000200820002020A1070033
:1055500080E100E040420F004D61696E576F726B51
:105560002E6300004620002047200020A0200020BD
:105570004D2000204C200020B42300204B20002090
:1055800034240020B220002001450000000000006B
:10559000BC200020BD20002080200020BE20002054
:1055A000A42000200137000000000000542000204B
:1055B000006800F0CEFF85480068401C8349086001
:1055C00000208349087081480068282817DB2821BB
:1055D0007E48006802F099FE002910D17D480068DD
:1055E000002806D11A20FEF784FF012079490860BF
:1055F00005E01A20FEF776FF002076490860734820
:1056000000684B214901884221DB73A103C9059140
:1056100004907348017868460175724801786846BD
:1056200041757148017868468175072204A96F4861
:1056300001F051FA0020654908606D4908706D4914
:1056400008706D4908701A20FEF753FF00BF6B48C1
:10565000007800281FD05D48006800281BD000207B
:1056600066490870012066490870002048600023E0
:10567000084606C86348006801F00DF80020534949
:1056800008605B4908705B4908705B4908701A2024
:10569000FEF72FFF14E059480078002810D04B483F
:1056A000006800280CD155490870484908605049E5
:1056B000087050490870504908701A20FEF719FF09
:1056C0005148007801284AD150480078002846D037
:1056D00000204E4908704E494E48006800F08EFB8D
:1056E0004DA35A6819689868DB6805930392029184
:1056F00004904748008800126946087344480178BE
:1057000068464173424840880112684681734048A8
:1057100081786846C1733E488088011268460174EA
:105720003B480179684641743948C088011268468F
:105730008174374881796846C174354800890112FF
:10574000684601753248017A684641750E2202A901
:10575000264801F0C0F901203349087000BF3348E2
:105760000078012810D13248006801280CD10C20A3
:1057700000F027F82F48FEF727FD0C20012181407B
:105780002D4A916000BF00BF2C480078002816D039
:105790002BA0006805901B48006800F038FD1948F0
:1057A000006800F05CFE722069464875022205A977
:1057B0000E4801F090F900202049087000BF00BF9A
:1057C000BCE4012181401C4AD1607047A420002024
:1057D0001120002060200020014200000000000095
:1057E0004B200020BC200020BD20002034240020BD
:1057F000472000204D2000204C2000204A2000207F
:1058000080200020042000204920002010200020BB
:105810005420002008200020015500000000000056
:105820000000000000000000B1200020B020002097
:105830008C20002050C300000005005048200020AC
:1058400001710000F0B585B00C46207801280BD11D
:105850006078432808D10020D54908700120D54937
:1058600008700020D44908602078012819D1607898
:10587000362816D1A078012803D1D048006800F05E
:10588000EEFD0020CB4908700120CD4908700020B2
:10589000CC490860CC490870CC4908700C2000F055
:1058A0007DF9207801285DD1607854285AD120797B
:1058B000002815D10120C44908700C2000F06EF9B1
:1058C000C3A103C90391029020796946087300BF00
:1058D000052202A9C04801F0FEF80028F8D137E0FF
:1058E0002079012811D1B9490870B9A103C90391E0
:1058F000029020796946087300BF052202A9B648C4
:1059000001F0E9F80028F8D122E02079022812D12C
:105910000120AE490870AEA103C90391029020791D
:105920006946087300BF052202A9AB4801F0D3F80D
:105930000028F8D10CE0A9A103C90391029000BF8F
:10594000052202A9A44801F0C6F80028F8D100BF3A
:105950000020984908709A4908700120A1490870F0
:10596000A14908702078012805D16078132802D158
:1059700000209E4908702078012805D160781428FD
:1059800002D100208A4908702078012811D160785E
:1059900009280ED10C2000F006F995A000680390AC
:1059A00000BF022203A98C4801F095F80028F8D125
:1059B00000BF207801281AD16078572817D10D2010
:1059C00000F0F1F80020804908708049087086498D
:1059D00008707B49087087A000680390022203A921
:1059E0007D4801F078F801207E49087000BF2078DA
:1059F000012805D16078712802D101207E49087004
:105A00002078012877D160785128FBD1FEF7E8FD96
:105A100005460027C82D01DB64274BE0E8B2C62805
:105A200004DDE8B2C82801DA5A2743E0E8B2C42806
:105A300004DDE8B2C62801DC50273BE0E8B2C2280A
:105A400004DDE8B2C42801DC462733E0E8B2C02810
:105A500004DDE8B2C22801DC3C272BE0E8B2BB2819
:105A600004DDE8B2C02801DC322723E0E8B2B62822
:105A700004DDE8B2BB2801DC28271BE0E8B2B0282F
:105A800004DDE8B2B62801DC1E2713E0E8B2B62830
:105A900004DDE8B2B42801DC14270BE0E8B2B42836
:105AA00004DDE8B2AF2801DC0A2703E0E8B2AF2842
:105AB00000DC0027FEF794FD0646DD2E02DAF0B288
:105AC000042803DC01204D49086002E000204B4916
:105AD00008604A48006801280ED1642F0CD11E20AE
:105AE00047490969C140C907C90F002904D00120ED
:105AF0004449086003E018E000204249086042A1E0
:105B000003C90391029068468672C57207733B48C9
:105B10000178684641733B480178684681730722E3
:105B200002A92D4800F0D7FF00BF207801281BD123
:105B30006078332818D136A103C90391029000BFC1
:105B4000062202A9244800F0C6FF0028F8D132A19D
:105B500003C90191009000BF062269461E4800F06B
:105B6000BAFF0028F8D100BF2078012814D160784E
:105B7000462811D12AA103C90391029021796846D0
:105B800001736179417300BF062202A9124800F037
:105B9000A2FF0028F8D100BF05B0F0BD012181406F
:105BA000174A9160704701218140154AD1607047C2
:105BB000B220002046200020A02000200420002049
:105BC00047200020A420002012200020B020002028
:105BD0000199000000000000342400200199000019
:105BE000990000004A20002049200020B120002018
:105BF000011000000158000048200020A8200020CB
:105C000000050050AC200020015200000000000000
:105C10000134000096000000003400000021000064
:105C200001470000000000007CB505460C460194C9
:105C3000002000906B4601AA01212846FEF7BEFE17
:105C40007CBD7CB506460C46154600200190200719
:105C5000000F4030009001AB6A4601213046FEF74C
:105C6000ADFE0021009101AB6A4601213046FEF7EE
:105C7000A5FE009501AB6A4601213046FEF79EFE67
:105C80007CBD3EB505460C460020029001902007E1
:105C9000000F2030009002AB6A4601212846FEF733
:105CA0008DFE0021009102AB6A4601212846FEF7D5
:105CB00085FEFF21009101AB6A4601212846FEF7CF
:105CC0007DFE684600793EBD7FB50546072000F0A1
:105CD00029F90120FEF788FA9BA0006803909BA099
:105CE000006802900121062000F021F90120FEF752
:105CF0007BFA0021062000F01AF900BF0820944921
:105D00000969C140C907C90F0029F7D101AB03AA2E
:105D100001212846FEF752FE6B4602AA03212846BF
:105D2000FEF74CFE69464C78097809020C4301AB3A
:105D300003AA01212846FEF741FE072000F0EDF8F6
:105D4000204604B070BD10B50446072000F0D2F81C
:105D5000062000F0CFF8052000F0CCF8112000F06C
:105D6000C9F80121082000F0CEF8062000F0C2F8A2
:105D70000121082000F0C7F8052000F0BBF8002141
:105D8000062000F0D4F8072000F0C7F80021052015
:105D900000F0CDF86420FEF727FA0121052000F07D
:105DA000C6F87D20C000FEF71FFA1A220021204607
:105DB000FFF747FF382202212046FFF742FF00226B
:105DC00001212046FFF73DFF23220B212046FFF74C
:105DD00038FF07220A212046FFF733FF77220321ED
:105DE0002046FFF72EFF012200212046FFF729FF62
:105DF00001220B212046FFF724FF10BD3EB50546CA
:105E00000C460021182000F092F80021192000F023
:105E10008EF80220FEF7E8F92846FFF755FF01212A
:105E2000C903401881B2684601800121182000F0A2
:105E30007EF80021192000F07AF80220FEF7D4F94C
:105E40002846FFF741FF0121C903401881B2684687
:105E500041800121182000F06AF80121192000F08A
:105E600066F80220FEF7C0F92846FFF72DFF012152
:105E7000C903401881B2684681800021182000F0D3
:105E800056F80121192000F052F80220FEF7ACF973
:105E90002846FFF719FF0121C903401881B268465F
:105EA000C1802846FFF710FF0121C903401881B2C5
:105EB00068460181002005E041006A46515A4200CF
:105EC000A152401C0528F7DB3EBD10B50446022157
:105ED0002046FFF7A9FE10BD10B50446012120465B
:105EE000FFF7A2FE10BD10B5044606212046FFF7BD
:105EF0009BFE10BD01210522120707231B02D218A9
:105F00008300D150704710B58A0005231B07072472
:105F100024021B1984001A5110BD012181400C4A32
:105F20009160704701218140094AD160704770B586
:105F300005460C46002C03D12846FFF7F3FF02E08C
:105F40002846FFF7EAFF70BD12000000FFFFFF00C8
:105F500000050050002906D100BF01228240FE4BFF
:105F6000DA6000BF06E000BF01228240FA4B9A606F
:105F700000BF00BF70471CB50446F8A00068019040
:105F80006B4601AA01212046FEF718FD68460078FD
:105F90001CBD7CB505460C460194002000906B4664
:105FA00001AA01212846FEF709FD7CBD70B5044613
:105FB000002500BF00210320FFF7CCFF052120466C
:105FC000FFF7E7FF2046FFF7D6FF05460121032034
:105FD000FFF7C0FFFFF7A6F8E807C00F0028E9D1D8
:105FE000012070BD10B5044600210320FFF7B2FF69
:105FF00006212046FFF7CDFF01210320FFF7AAFF6E
:1060000000210320FFF7A6FF01212046FFF7C1FF73
:1060100000212046FFF7BDFF01210320FFF79AFF73
:106020002046FFF7C3FF10BDFFB581B00C461546F3
:106030001E46002701208003844203DCFF2D01DC83
:10604000002E02D1002005B0F0BD0198FFF7AEFF91
:1060500000210320FFF77EFF03210198FFF799FF3E
:106060002004010E0198FFF794FFE1B20198FFF7B9
:1060700090FFE9B20198FFF78CFF002705E0019837
:10608000FFF779FF0A99C8557F1CB742F7D3012162
:106090000320FFF75FFF0120D5E7FFB581B00C4675
:1060A00015461F46002601208003844204DCFF2D94
:1060B00002DC0A98002802D1002005B0F0BD01984A
:1060C000FFF774FF00210320FFF744FF062101982A
:1060D000FFF75FFF01210320FFF73CFF00210320B2
:1060E000FFF738FF02210198FFF753FF2004010E4C
:1060F0000198FFF74EFFE1B20198FFF74AFFE9B2BE
:106100000198FFF746FF002604E0B95D0198FFF70C
:1061100040FF761C0A988642F7D301210320FFF73F
:1061200019FF0198FFF742FF0120C6E770B5064648
:106130000D4600240F2D01DD002070BD3046FFF715
:1061400035FF00210320FFF705FF06213046FFF74A
:1061500020FF01210320FFF7FDFE0C2068430124EE
:10616000844000210320FFF7F5FE20213046FFF791
:1061700010FF2002010E3046FFF70BFF2004010E36
:106180003046FFF706FFE1B23046FFF702FF01217C
:106190000320FFF7DFFE3046FFF708FF0120CCE7C2
:1061A00070B506460C4600253F2C01DD002070BD71
:1061B0003046FFF7FBFE00210320FFF7CBFE062150
:1061C0003046FFF7E6FE01210320FFF7C3FE25045A
:1061D00000210320FFF7BEFED8213046FFF7D9FE8D
:1061E0002802010E3046FFF7D4FE2804010E304687
:1061F000FFF7CFFEE9B23046FFF7CBFE01210320C7
:10620000FFF7A8FE3046FFF7D1FE0120CFE710B51B
:1062100004462046FFF7CAFE00210320FFF79AFE3E
:1062200006212046FFF7B5FE01210320FFF792FE6D
:1062300000210320FFF78EFE60212046FFF7A9FE14
:1062400001210320FFF786FE2046FFF7AFFE012065
:1062500010BDF7B582B00D46164600240027002079
:1062600000900F2D01D20F2E02D3002005B0F0BDFB
:106270000298FFF79BFE00210320FFF76BFE06212B
:106280000298FFF786FE01210320FFF763FEB54267
:1062900002D901953546019EB54222D10C206843B2
:1062A0000124844000210320FFF754FE202102989E
:1062B000FFF76FFE2002010E0298FFF76AFE20042E
:1062C000010E0298FFF765FEE1B20298FFF761FE4A
:1062D00001210320FFF73EFE0298FFF767FE012031
:1062E000C4E7701B0F2810D100210320FFF732FEF6
:1062F00060210298FFF74DFE01210320FFF72AFEDF
:106300000298FFF753FE0120B0E7701B471C009571
:1063100037E000210320FFF71DFE06210298FFF75A
:1063200038FE01210320FFF715FE0C210098484399
:106330000124844000210320FFF70CFED82102989D
:10634000FFF727FE2002010E0298FFF722FE20042D
:10635000010E029804E0000000050050FF0000005C
:10636000FFF717FEE1B20298FFF713FE01210320A9
:10637000FFF7F0FD0298FFF719FE0098103000902B
:10638000103F102FC5D231E000210320FFF7E2FDBE
:1063900006210298FFF7FDFD01210320FFF7DAFD3A
:1063A0000C21009848430124844000210320FFF77A
:1063B000D1FD52210298FFF7ECFD2002010E029858
:1063C000FFF7E7FD2004010E0298FFF7E2FDE1B2BE
:1063D0000298FFF7DEFD01210320FFF7BBFD0298C5
:1063E000FFF7E4FD009808300090083F082FCBD25B
:1063F00031E000210320FFF7ADFD06210298FFF7F1
:10640000C8FD01210320FFF7A5FD0C21009848439A
:106410000124844000210320FFF79CFD20210298E5
:10642000FFF7B7FD2002010E0298FFF7B2FD20042E
:10643000010E0298FFF7ADFDE1B20298FFF7A9FD4A
:1064400001210320FFF786FD0298FFF7AFFD0098BA
:10645000401C00907F1E002FCBD1012006E77CB5A9
:1064600005461D2000F08CF9032000F089F91C205E
:1064700000F086F9042001218A0005231B07072666
:1064800036029B1986009A5100BF04212846FFF767
:1064900087FE05212846FFF783FE06212846FFF7E1
:1064A0007FFE07212846FFF77BFE00200190012494
:1064B0001AE001A80090A006010C01230022284642
:1064C000FFF7B2FD68460079FF280AD1B1490C7088
:1064D00001200003B0490860B0490C70B049086061
:1064E00000E000E002E0641C0F2CE2DD00BF0120B0
:1064F000A84908700003A84908600120A74908704E
:106500000003A7490860A3480078844207D1A14846
:106510000078A249087001200003A14908609D4845
:1065200000780D2814DB9D4800789A490978884244
:106530000BD12846FFF76BFE01209649087097495A
:10654000087000209749087002E001209549087002
:106550007CBD70B586B005460C460F2069460872B2
:10656000012003E0FF2102AA1154401C0628F9DB98
:10657000062011E0811FCA0F521852105200A25A71
:10658000121202AB1A54CA0F521852105200A35CD6
:1065900002AE421CB354801C1028EBDB102000908C
:1065A0007D4802787B48007880047B4B1B68C018CC
:1065B0000002010C02AB2846FFF76FFD7648006829
:1065C000103075490860012006B070BD30B587B045
:1065D00005460C4674A00068029003A8009070481D
:1065E00002786E48007880046D4B1B68C01800026A
:1065F000010C10232846FFF717FD6846007B20702A
:106600006846407B60706846817BA170C17BE17009
:10661000017C2171417C6171807C01026846C07CF3
:10662000014308B2E0806846007D01026846407D73
:10663000014309B221816846807D01026846C07D20
:10664000014309B261816846007E01026846407ECE
:10665000014309B2A1816846807E00026946C97E75
:10666000084301B2E181012000904D4802784B4877
:10667000007880044A4B1B68C0180002010C02AB72
:106680002846FFF70AFD4648006810304449086074
:10669000012007B030BD3FB583B005461C466846B3
:1066A000017C01710598010E684641710598000250
:1066B000010E6846817105980004010E6846C1719B
:1066C0000598C1B268460172002C0AD105200090DD
:1066D000304800788006010C01AB00222846FFF705
:1066E000DCFC012C0AD1052000902C4800788006A3
:1066F000010C01AB00222846FFF7CFFC07B030BDEC
:106700003EB505460C4600200190029001A800907D
:10671000224800788006010C052300222846FFF756
:1067200083FC694608792070487900068979090454
:1067300008436946C979090208436946097A08434A
:1067400060603EBD10B5044600210320FFF702FC47
:10675000B9212046FFF71DFC01210320FFF7FAFBBA
:1067600010BD10B5044600210320FFF7F3FBAB2159
:106770002046FFF70EFC01210320FFF7EBFB10BDC5
:1067800001210522120707231B02D2188300D150D2
:1067900070470000BC200020B4200020BD20002055
:1067A000B8200020BE200020010000008A888282DC
:1067B00070470022D2438282704770B504460E466D
:1067C000B51D2988208A814213D1288B022810D137
:1067D00000BF00BFA97EEA7E120211430846C1072E
:1067E000C90F002902D00120A0750FE00020A0757C
:1067F0000CE02888A188884208D1A069002805D02B
:106800002A8B29461A312046A369984770BD30B5B6
:106810008FB004460D460020079000BF6846007FF9
:1068200001090901491C68460177007FF02188436E
:1068300010306946087700BF00BF6846407F0109F5
:106840000901491C68464177407FF0218843103098
:106850006946487700BF6846807F06218843811CCF
:10686000684681771C2108A801F043FD08A800783C
:1068700010218843411808A80170002009900B904E
:106880000C9007A80D9000200E9021786846817129
:10689000032181800020009000BF68460078010934
:1068A0000901491C684601700078F02188431030C6
:1068B0006946087000BF00BF6846407801090901B9
:1068C000491C684641704078F02188431030694681
:1068D000487000BF6846807806218843811C68465E
:1068E00081708078082188430146684681708078ED
:1068F000102188430146684681708078410849002C
:10690000491C68468170142102A801F0F2FC01A81C
:1069100002906846039001210182002141821421E6
:106920008182608823460C3302AA08A9A2DF0FB037
:1069300030BD30B58FB004460D461C2108A801F0CB
:10694000D8FC08A8007808218843411808A80170DD
:10695000007804218843011D08A8017000200990D7
:106960000B900C900D900E90217868468172022158
:1069700001810020019000BF6846007901090901EA
:10698000491C684601710079F0218843103069463E
:10699000087100BF00BF6846407901090901491C20
:1069A000684641714079F02188431030694648714A
:1069B00000BF6846807906218843811C6846817142
:1069C00080790821884301466846817180791021C9
:1069D0008843014668468171807941084900491C15
:1069E00068468171142103A801F083FC02A803907A
:1069F00001A804900121684681820021C1821421EE
:106A000001836088231D03AA08A9A2DF0FB030BD4F
:106A100070B505460C46002D01D0002C00D170BD8C
:106A20002088102804D0112807D050280FD109E061
:106A300021462846FFF7BAFE0AE021462846FFF71E
:106A4000B8FE05E021462846FFF7B7FE00E000BF8C
:106A500000BF00BFE3E770B586B004460E46334B77
:106A60000FCB01AD0FC5002C01D0002E02D10E209E
:106A700006B070BD0020C043A0823068A061002035
:106A8000A075214601A862DF0546002D01D02846E9
:106A9000EEE721786846817501218182A21C05A953
:106AA0000120A0DF0546002D01D02846E0E7314651
:106AB0002046FFF7ACFE0546002D01D02846D7E75B
:106AC00031462046FFF735FF0546002D01D0284608
:106AD000CEE70020CCE737B584B004460D46002C45
:106AE00002D10E2007B030BDA08A1149884202D0E1
:106AF000A07D002801D10820F4E76846008B142807
:106B000001DD0720EEE70020009001900290039045
:106B1000A18968460180039506A802900121684674
:106B20008170A08A6946A6DFDCE700002C8701009F
:106B3000FFFF0000F7B584B004460F4606980678BC
:106B4000B01C1F2803DC2079801C1F2802DD0C20CC
:106B500007B0F0BD1F20801B801E85B20295B11CBE
:106B6000781802A97DDF03900398002801D00398CC
:106B7000EEE72068022808D168460089A84204DCB4
:106B800009200190684605890BE0082001902079D2
:106B9000002804D02079A84201DC257901E068466C
:106BA0000589681CC2B23046711CCEB23A543046D8
:106BB000721CD6B20199395406980178A81C08189D
:106BC000C1B2069801700020C2E7F8B505460C4630
:106BD0002078001D1F2801DD0C20F8BD684679DFF4
:106BE0000646002E01D03046F7E703212278501CDC
:106BF0002070A95419212278501C2070A9542078A3
:106C000041196846008800F08BFA217840182070FE
:106C10000020E2E7F8B505460F4616461C466868B0
:106C2000002801D10720F8BD2078801C2988401851
:106C30001F2801DD0C20F6E72878401CC1B222781D
:106C4000501C2070B1542178481C207077542A8839
:106C500023789819696801F0EDFA207829784018AE
:106C600020700020DFE730B503461078C01C1F28D5
:106C700001DD0C2030BD02241578681C10704C55C5
:106C80000A241578681C10704C551578681C107013
:106C90004B550020EEE7FFB587B006461D46109C19
:106CA0000020069020780590002747E0B900706822
:106CB00041180A886846028149884181002203A957
:106CC00002A864DF04900498002802D004980BB056
:106CD000F0BD6846017B099881422ED106980028B4
:106CE00001D0002000E00220019020786946097B55
:106CF0004118019808181F2801DD0C20E7E70698C5
:106D0000002809D12078401C20702278511C089856
:106D10002170A854012006902078421903A902A8E6
:106D200064DF04900498002801D00498CFE720780D
:106D30006946097B4018207000BF7F1C3088B8422C
:106D4000B4DC0698002806D021780598401C081A63
:106D5000C1B2059829540020B9E7FFB581B00746B4
:106D600015460A9E009602223846049B0299FFF7B8
:106D700092FF0446002C02D0204605B0F0BD0096DC
:106D8000102229463846049BFFF785FF0446002C55
:106D900001D02046F1E70020EFE7014608880628E9
:106DA00008DB08881922D201904205DD0888E14AF3
:106DB000904201D0072070474888062808DB4888A1
:106DC0001922D201904205DD4888DA4A904201D06A
:106DD0000720F0E70888D74A904208D048889042B8
:106DE00005D008884A88904201DD0720E3E70020AB
:106DF000E1E7F8B506460D4614462078801D1F28A9
:106E000001D90C20F8BD3046FFF7C7FF0746002F19
:106E100001D03846F6E705212278501C2070A9548D
:106E200012212278501C2070A954227851193088E0
:106E300000F076F921784018207022785119708876
:106E400000F06EF92178401820700020DAE7F8B5DC
:106E500005460E4614462879801CC7B22078801C4F
:106E6000C0191F2801DD0C20F8BD781CC1B22278A2
:106E7000501C2070B154FF212278501C2070B15456
:106E800022789119288800F04BF921784018207059
:106E9000A88800280EDDA868002801D10720E3E7B4
:106EA000AA8823789819A96801F0C4F9207829796B
:106EB000401820700020D7E7FEB507460E4614465E
:106EC000786B002801D10720FEBD0020019032E040
:106ED000796B0C22019850430D182879801CC0B2A0
:106EE00000900098401CC1B22278501C2070B15410
:106EF00016212278501C2070B154227891192888CC
:106F000000F00EF9217840182070A88800280EDDC6
:106F1000A868002801D10720D6E7AA882378981905
:106F2000A96801F087F92078297940182070019824
:106F3000401CC0B201903820C15D01988142C7DC7D
:106F40000020C1E7F8B504460F461646002500208C
:106F500030702068002809D0324639462046FFF7B5
:106F6000E9FD0546002D01D02846F8BD60790028CE
:106F700008D031463846FFF728FE0546002D01D0DF
:106F80002846F2E7208900280BDD33463A460121E6
:106F900020460830FFF73EFE0546002D01D028466A
:106FA000E3E7206900280BD000202169085632460B
:106FB0003946FFF758FE0546002D01D02846D4E794
:106FC000A08A00280CDD3B46062202212046143010
:106FD0000096FFF7C2FE0546002D01D02846C4E703
:106FE000A08B00280CDD3B460722032120461C30E5
:106FF0000096FFF7B2FE0546002D01D02846B4E703
:10700000A08C00280CDD3B4615221421204624309C
:107010000096FFF7A2FE0546002D01D02846A4E702
:10702000E06A002809D032463946E06AFFF7E1FEFF
:107030000546002D01D0284697E7206B002809D08F
:1070400032463946206BFFF702FF0546002D01D07E
:1070500028468AE73820005D002809DD3246394697
:107060002046FFF729FF0546002D01D028467CE782
:1070700028467AE701460889002808D0C868002811
:1070800005D0C868007804221040002801D10720EC
:1070900070470020FCE701460889002801DD072031
:1070A00070470020FCE7F3B593B00D460021129124
:1070B00011911398002814D01398FFF7DBFF0446B2
:1070C000002C02D0204615B0F0BD12AA09A91398D1
:1070D000FFF738FF0446002C01D02046F3E709AE45
:1070E00000E00026002D13D02846FFF7D4FF044609
:1070F000002C01D02046E6E711AA01A92846FFF797
:1071000021FF0446002C01D02046DCE701AF00E05F
:10711000002710A803793A46017A304672DFD2E799
:1071200002460A70FF200002104000124870022040
:1071300070470000FFFF000001464888B74A1288E8
:10714000904206DB4888B54A5288904201DC012013
:1071500070470020FCE738B50546B1480088B149C2
:1071600088423BD0B0480078401CAF490870AF4817
:10717000007B097888420FDBA849A948008875DFA1
:107180000446002C07D0A9488069002803D0A748EE
:1071900081692046884721E00020A3490870A34860
:1071A000007C00280FD03B219D48008876DF0446F4
:1071B000002C07D09D488069002803D09B48816936
:1071C0002046884700BF99484069002806D0002023
:1071D0000090964841696846884700BF38BD70B541
:1071E00005461C2229469148FDF72EF800209049BB
:1071F0000870286800280BD008228848296801F008
:1072000019F886487ADF0446002C08D0204670BD65
:1072100082487BDF0446002C01D02046F7E700209F
:10722000C0437F49088000207F490870814A0021BF
:10723000814800F0ECFEEAE710B57F48006800F0F6
:107240005EFF10BD38B57D48FFF776FF002829D1D5
:107250007748007800280AD074484069002820D078
:1072600000200090714841696846884719E06E48DF
:107270000078002802D16D48456801E06B488568B8
:10728000002229466C48006800F008FF0446002CE4
:1072900007D066488069002803D064488169204689
:1072A00088470AE061484069002806D00120009024
:1072B0005E4841696846884700BF00205C49087005
:1072C00038BD10B50446A0885549088008222146DB
:1072D0000E315A4800F0AEFF002053490870534861
:1072E000C089002801D1FFF7ADFF10BD70B505467C
:1072F0000020C0434A49088000204B4908704E488E
:10730000006800F0FCFE0446002C07D04748806966
:10731000002803D0454881692046884770BD70B574
:107320000546AC1D20884149C989884220D1208B5F
:1073300002281DD100BF00BFA17EE27E12021143D0
:107340000846C107C90F002902D0FFF77BFF0FE0F5
:107350003948006800F0D3FE0646002E07D03348B7
:107360008069002803D0314881693046884700BFD2
:1073700070BD10B504460822A11D304800F05AFF28
:10738000FFF760FF10BD10B504462088102806D016
:10739000112808D012280ED0502810D107E020461E
:1073A000FFF78FFF0CE02046FFF7A0FF08E0204624
:1073B000FFF7B5FF04E02046FFF7DBFF00E000BF6A
:1073C00000BF10BD38B5044608222146134800F01E
:1073D00031FF12487ADF0546002D1CD11748FFF710
:1073E000ABFE00280BD10120114908700B490C4855
:1073F000008875DF054601200B4908700BE00B483B
:107400004069002806D0012000900848416968467C
:10741000884700BF0025284638BD0000C020002056
:10742000CA200020FFFF0000C820002050240020B8
:10743000D820002057710100D4200020CC2000204B
:1074400070B506460C46154629462046FDF7B1FBA9
:1074500070BDF8B55A480078002800D1F8BD5948E9
:107460000068002801D1012000E0002005465648B0
:107470000068002801D1012000E00020064600BF7E
:10748000002D14D168464EDF0446052C01D101259C
:107490000CE0002C06D000BF4CA269212046FDF76D
:1074A0007DFB03E0474900980968884700BF002E2C
:1074B0001AD154480088009069465348006860DF3C
:1074C0000446052C01D101260DE0002C06D000BF9A
:1074D0003EA280212046FDF761FB04E04A48006897
:1074E00039490968884700BF002D02D0002E00D01E
:1074F00000E0C5E700BF00BFB0E7FFB581B00C46B4
:1075000016461F46002C02D1072005B0F0BD2046CC
:107510008107890F002901D1012100E00021002904
:1075200001D10720F1E73848046036480680374823
:1075300007603749019810DF0546002D01D0284625
:10754000E3E701201E490870162023DFDDE710B5B0
:1075500011DF0446002C01D0012000E00020184972
:107560000870204610BD0146002901D10E20704749
:10757000154801600020FAE70146002901D10E20DC
:107580007047104801600020FAE770B51F48006896
:10759000002811D01D4800688047044600BF2546DA
:1075A000002D07D000BF09A2FF2133312846FDF787
:1075B000F5FA00BF00BF01E0FFF74BFF70BD000010
:1075C000E6200020EC200020E82000202E2E5C2E5B
:1075D0002E5C2E2E5C2E2E5C2E2E5C536F757263ED
:1075E000655C73645F636F6D6D6F6E5C736F667403
:1075F0006465766963655F68616E646C65722E634D
:1076000000000000E4200020E0200020DC2000201A
:107610004174010000BF424880680128FBD100206E
:107620003F4988603F488069C0B2704770B50446E2
:107630000D4601260AE02046641E002804DB7D205A
:10764000C000FCF7E1FD01E0002603E0344880685B
:107650000128F0D100BF002C05DB002030498860F4
:10766000304880692870304670BD2E49C86100BF1F
:107670002B49C9690129FBD10021294AD1617047F1
:1076800030B50346002528466D1C1C5C05E02046ED
:10769000FFF7EBFF28466D1C1C5C002CF7D130BDBA
:1076A000F8B507460C4615461E46204600F025F85C
:1076B0000021304600F02AF81A48C4604661069856
:1076C00000280DD0384600F018F80021284600F0B8
:1076D0001DF8144805618760012012494031C862D5
:1076E0001148104948620420086001200F49886051
:1076F000086000200A498860F8BD012105221207B0
:1077000007231B02D2188300D150704710B58A009E
:1077100005231B07072424021B1984001A5110BDDE
:10772000002100400025004000509D000020004046
:1077300010B5002819DAFA4A03071B0F083B9B080B
:107740009B00D2588307DC0EFF23A3409A438B078C
:107750001B0E8407E40EA3401A43F14B0407240FC9
:10776000083CA408A4001A5118E0EE4A03231B02A7
:10777000D21883089B00D2588307DC0EFF23A34056
:107780009A438B071B0E8407E40EA3401A43E54B74
:10779000032424021B198408A4001A5110BD10B53B
:1077A0000446E148846003211120FFF7C1FF10BDAA
:1077B00010B501200004DD494860DC4940394860CB
:1077C000112000F0E7FC112000F0D6FC0120D84980
:1077D00008602F20FCF728FD10BD10B511200121F5
:1077E0008140D04A8032116000BF01200004CF499F
:1077F0008860CE49403988600120CD4948602F20FB
:10780000FCF712FD10BDF0B5024628205043C94BCD
:107810001B68C118C8480068401C002802D1C6482F
:10782000026059E0C4488B68006828246043C14C5A
:10783000246800198068834217D8BF48006828234D
:107840005843BC4B1B68C01880688B68C31ABA4881
:10785000006828246043B74C246800198360B64848
:1078600000684862B448026036E08B68B24D2C680C
:1078700028680DE028254543AE4E3668AD19AD6841
:107880005B1B044628254543AA4E3668AD19686A35
:10789000451C002D07D028254543A64E3668AD1956
:1078A000AD689D42E6D3451C002D0CD028254543EC
:1078B000A04E3668AD19AD68EE1A282545439D4F98
:1078C0003F68ED19AE608B60486228256543994E8C
:1078D0003668AD196A6200BFF0BD70B50246964CBD
:1078E0002168084609E0904200D109E001462824B9
:1078F0004443904D2D686419606A441C002CF2D1F9
:1079000000BF441C002C00D170BD814209D18A4CBB
:10791000246828256C43874D2D686419646A864D58
:107920002C6028244443834D2D686419A3682824BF
:107930004443804D2D686419656A28244C437D4E6C
:107940003668A419656228244C437A4D2D68641961
:10795000606A441C002C0CD028244443754D2D68CB
:107960006419A468E51828244443724E3668A419A3
:10797000A56000BFC8E710B5112000F004FC10BDE1
:1079800010B5142000F0FFFB10BD70B504466B4825
:107990000068002813D0694A216AE069126890479C
:1079A000054600BF2E46002E07D000BF64A2FF216F
:1079B00064313046FDF7F2F800BF00BF02E0E16934
:1079C000206A884770BDF8B55B480068401C0028F5
:1079D0003AD0002700F010FC0446654801682046B4
:1079E00000F00DFC06465448056811E02820684365
:1079F000504909684418A068B04200D90BE0A0685B
:107A0000361AA068C719656A2046FFF7BEFF00BF97
:107A1000681C0028EAD100BF56480078564909780A
:107A2000884209D154480078401CC0B252490870BD
:107A3000022801D1002008704F48007880004F498B
:107A40000F50FFF79DFF00BFF8BD01464948007881
:107A5000494A127890421DD046480078401C454A59
:107A6000107010460078022801D1002010704148A3
:107A700000788000414A105808603D4A0868126842
:107A800080183B4A1060104600680002000A10602F
:107A9000012070470020086000BFFAE7FEB52648C5
:107AA0000068019036480078009074E00098C000AB
:107AB000344909684418257869E0182068436168EA
:107AC0000F18681CC5B2A078A84200D100253868FC
:107AD000022802D0032857D10EE0282178684843B5
:107AE000144909684618307E002804D07868FFF7EA
:107AF000F4FE0020307648E00CE00F4909682822A7
:107B000051430C4A12688818002101760A4A416ADA
:107B1000116000BF08480068401C0028EDD134E027
:107B20001CED00E000E100E00015014040130140C1
:107B300000100140F420002000210020142100202A
:107B40002E2E5C2E2E5C2E2E5C2E2E5C2E2E5C534A
:107B50006F757263655C6170705F636F6D6D6F6E82
:107B60005C6170705F74696D65722E630000000067
:107B700004210020102100201121002008210020D4
:107B8000F8200020FC20002000BF00BF00BF60786C
:107B9000A84292D100BF0098411EC9B200910028AE
:107BA00084D1F94801680198814201D00120FEBDCD
:107BB0000020FCE7F0B50346002426E0F24E3668CC
:107BC00028277E43F14F3F68F01986689E4203D90B
:107BD0008668F61A86601DE086689B1B86683419E5
:107BE000002686600676E84E3568E74F466A3E60B6
:107BF0004669002E08D00E193602360AC66046695C
:107C0000066116684662156000BFDF480068401CC8
:107C10000028D3D100BFF0BDFEB50746DA480068A2
:107C20000290DB48007801906BE00198C000D949D0
:107C3000096845185DE0781C002807D03E462820DA
:107C40007043D24909684418676A23E029781823E9
:107C500059436A6850182978491C29702978AA78EC
:107C6000914201D100212970466828217143C74AF9
:107C700012688C180168012902D1217E002900D0E8
:107C800037E08168E160C168216101696161416932
:107C9000216200BFC049E0680968401A0002000A7A
:107CA000BE49884208D2BC49E068096800F0A7FADA
:107CB00021694018A06011E0B748E168006800F051
:107CC0009EFA009021690098814204D921690098A8
:107CD000081AA06001E00020A06000BF0020E06062
:107CE000206101202076801E60623046FFF78BFD08
:107CF00000BF781C00289ED12878697888429AD1E4
:107D000000BF0198411EC9B2019100288DD19E4843
:107D100001680298814201D00120FEBD0020FCE7ED
:107D2000FEB5054698480068401C002835D09648A6
:107D3000006828214843954909684018866800F082
:107D40005BFA0290944804682146029800F057FAC2
:107D5000C01C0190681C002801D1FFF729FD019883
:107D6000B04201D2304600E0019804192402240AEE
:107D700020468B49086000BF00F03EFA009002994F
:107D8000009800F03CFAC71C2046029900F037FA30
:107D9000874201D9FFF7EFFD01E0FFF71EFDFEBDB1
:107DA000FEB50020C04301907B4804687648076810
:107DB0006846FFF74AFE0546FFF770FE0646002DAF
:107DC00005D001AA21460098FFF7F4FE012601988C
:107DD000FFF722FF002800D00126002E02D03846EF
:107DE000FFF79EFFFEBD4170704770B502460B461F
:107DF0005078411C9078884200D100211078884248
:107E000001D1002070BD1960507818267043556864
:107E10002C182046F6E7FFB581B005460E461746FA
:107E2000E9005C4A126888186946FFF7DEFF0446DD
:107E3000002C02D1042005B0F0BD01202060666056
:107E400000F0DAF9A060E760049820610A986061A8
:107E5000E900504A126888180099FFF7C4FFFFF73D
:107E60008FFD0020E7E7F8B504460E46E100494AD9
:107E7000126888186946FFF7B8FF0546002D01D142
:107E80000420F8BD022028606E60E100414A1268BB
:107E900088180099FFF7A7FFFFF772FD0020F0E7B1
:107EA00038B50446E1003B4A126888186946FFF776
:107EB0009CFF0546002D01D1042038BD0320286019
:107EC000001F6860E100334A126888180099FFF7C4
:107ED0008AFFFFF755FD0020EFE710B531A0FFF74F
:107EE000CFFB0020314908600021304841608160AB
:107EF000C16000202D49403908604860FFF763FDEC
:107F000028A0FFF7BDFB10BD10B5FFF749FF10BD5E
:107F1000FFB581B00E4617461C4620468107890FE3
:107F2000002901D1012100E00021002902D1072010
:107F300005B0F0BD002C01D10720F9E7FFF74DFC9B
:107F40001B490A9808601B48067010480460002509
:107F50000CE00021282068430C4A126811502820A8
:107F600068430A4A1268801801766D1CB542F0DB3E
:107F7000282070430419032005490870054804604F
:107F80001834002525E0000000210020F420002006
:107F9000F8200020FC20002004210020FFFF7F00AB
:107FA000401501403131313131310A004011014079
:107FB00014210020F0200020E900934A126888185C
:107FC00000210170417087704460182179430C19B9
:107FD0006D1C032DF0DB0020C0438C49086000209D
:107FE0008B4908708B490870142000F0D3F80321E6
:107FF0001420FFF79DFB142000F0BEF80198FFF756
:10800000CEFB00F0F9F884490860002090E770B5D5
:1080100003460C4681480068002801D1082070BD45
:10802000002A01D10720FAE7002B01D10720F6E74B
:1080300000211CE028204843784D2D68285800284E
:1080400014D1012528204843744E36683550282025
:108050004843724D2D6840194460282048436F4DB5
:108060002D684019C26119600020D8E7491C6C488E
:1080700000788142DEDB0420D1E710B500F092F8F1
:10808000012802D0032804D101E0002403E00124E8
:1080900001E0022400BF00BF204610BDFEB504462B
:1080A0000D4616465D480068002801D10820FEBD37
:1080B0005B480078844201D2052D01D20720F6E703
:1080C00028206043554909680858012801D0082034
:1080D000EDE72820604351490968401840680128AD
:1080E00001D1284600E000200746FFF7C6FF3B46C7
:1080F0002A46214600960190FFF78DFED7E770B51E
:10810000044646480068002801D1082070BD444854
:108110000078844201D30720F8E7282060433F49D4
:1081200009680858012801D00820EFE7FFF7A5FFEC
:1081300005462146FFF797FEE8E710B53748006887
:10814000002801D1082010BDFFF797FF0446FFF774
:10815000A7FEF8E710B5044600F04EF820600020B6
:1081600010BD70B505460E4614463146284600F04F
:1081700046F82060002070BDC206D20E0121914059
:10818000284A11607047C206D20E01219140264A4A
:1081900011607047C206D20E01219140224A8032FE
:1081A0001160704710B521484068C105C90D00290C
:1081B00020D00A46103A104600280DDA1B4B1C331B
:1081C0000407240F083CA408A4001B598407E40EEC
:1081D000E3401B069B0F0BE0124B032424021B19E8
:1081E0008408A4001B598407E40EE3401B069B0F80
:1081F000D8B210BD0420FCE70D4840687047024625
:10820000501A0002000A7047FC20002000210020C4
:10821000102100201121002004210020F420002042
:10822000F020002000E100E000E200E000ED00E0CE
:1082300000150140F8B5042A2CD3830712D00B781F
:10824000491C0370401C521E83070BD00B78491C3D
:108250000370401C521E830704D00B78491C037026
:10826000401C521E8B079B0F05D0C91ADF0020232C
:10827000DE1B08C90AE0FBF7E7FFF8BD1D4608C989
:10828000FD401C46B4402C4310C0121F042AF5D2F6
:10829000F308C91A521EF0D40B78491C0370401C15
:1082A000521EEAD40B78491C0370401C012AE4D406
:1082B00009780170F8BD01E004C0091F0429FBD250
:1082C0008B0701D50280801CC90700D0027070475F
:1082D00000290BD0C30702D00270401C491E02299E
:1082E00004D3830702D50280801C891EE3E70022A5
:1082F000EEE70022DFE7002203098B422CD3030ABA
:108300008B4211D300239C464EE003460B433CD4E2
:10831000002243088B4231D303098B421CD3030A4A
:108320008B4201D394463FE0C3098B4201D3CB017A
:10833000C01A524183098B4201D38B01C01A5241AA
:1083400043098B4201D34B01C01A524103098B42AE
:1083500001D30B01C01A5241C3088B4201D3CB0099
:10836000C01A524183088B4201D38B00C01A52417C
:1083700043088B4201D34B00C01A5241411A00D22C
:1083800001465241104670475DE0CA0F00D0494295
:10839000031000D34042534000229C4603098B4205
:1083A0002DD3030A8B4212D3FC22890112BA030A8D
:1083B0008B420CD3890192118B4208D3890192110F
:1083C0008B4204D389013AD0921100E08909C30994
:1083D0008B4201D3CB01C01A524183098B4201D396
:1083E0008B01C01A524143098B4201D34B01C01A81
:1083F000524103098B4201D30B01C01A5241C308F9
:108400008B4201D3CB00C01A524183088B4201D367
:108410008B00C01A5241D9D243088B4201D34B0082
:10842000C01A5241411A00D20146634652415B10C4
:10843000104601D34042002B00D5494270476346A5
:108440005B1000D3404201B50020C046C04602BDCB
:10845000704770477047000070B5FF242404C609B8
:10846000FF25264001352E43C209CB09054622408F
:1084700023404D40002A6BD0002B69D0A24267D028
:10848000A34265D0002D00DA32460124E4052143E1
:10849000204309020002090AD21A000A4B0C7F2469
:1084A000E31A434C7C44E35C7D2424041219141425
:1084B0005B00A218884201D3521C00E040004942F0
:1084C0000C465C4324115C43DB016415E318040A89
:1084D0005C43C502200D0C4644436419250A5D43E4
:1084E0002303EC0C0D46654300030019EB184C42C6
:1084F000A34201D35B18401CD4052018002B07D0E1
:108500005B00C91804D3401C002901D14008400079
:108510003F2189048A4209D3002A08DC1106090F89
:1085200004D0032149074018C00FC00770BD0122C5
:108530004100120689187F2252069142F6D2052187
:108540004907C84201D5901070BDFF20C00570BD1D
:10855000002D00DA3246174EA24207D2A34205D2BE
:108560001802000E17D0E80FC00770BDFF244300AB
:108570002406A34216D84900A14213D8A34201D130
:10858000A1420FD0A14201D1002101E041004908E0
:10859000D005084370BD1002000E03D0FF20024337
:1085A000D00570BD304670BD48404140484053E75B
:1085B000940200000000C07F1F22030C02D10F2292
:1085C00000041CD0030E01D10002083A030F01D1B0
:1085D0000001121F830F01D18000921E002801DBD1
:1085E0004000521ED2055118021251181922904013
:1085F00004D3491C002801D14908490008467047A6
:10860000C10FC90700D04042012292071143D3E7AE
:1086100001218907D0E7754600F022F8AE46050033
:1086200069465346C008C000854618B020B5FBF720
:1086300037FE60BC00274908B6460026C0C5C0C545
:10864000C0C5C0C5C0C5C0C5C0C5C0C5403D490046
:108650008D4670470446C046C0462046FBF77DFD68
:10866000004870476C24002001491820ABBEFEE78B
:10867000260002007047000070B5420064414B00C4
:108680005C41120E39D01B0E38D0FF2A3CD0FF2B94
:108690003AD040024902400A490A060045184E43B2
:1086A000000A090AD2184843ED017F3A0104731AFF
:1086B0004019190C4318990F04D001215B08490790
:1086C0005B1A521CD80904D3401CF50301D19D0646
:1086D00007D0FF2A08D2D50506D0E4072043401969
:1086E00070BD0125A843F4E7002A01DCE00770BD56
:1086F0002402FF202043C00570BD1B0EFF2A03D0BB
:10870000FF2B01D0E00770BDFF2645003606B542BD
:1087100006D84D00B54203D8D218FF2A00D0E7E7AB
:10872000004870BD0000C07F010000009ECADC242C
:108730000EE5A9E093F3A3B50000406E8182838427
:1087400085868788898B8C8D8E8F9192939596974D
:10875000999A9C9D9FA0A2A3A5A7A8AAACAEB0B2CF
:10876000B3B5B7B9BCBEC0C2C5C7C9CCCED1D4D7CA
:10877000D9DCDFE2E6E9ECF0F3F7FAFE9C870100D2
:10878000002000201801000004410100B48801000D
:1087900018210020B8130000204101000024F4003B
:1087A00000000000000000000000000000000000C9
:1087B00000000000000000000000FFFF00000000BB
:1087C00000000000000000000000000000000000A9
:1087D0000000000001000000000000000000000098
:1087E0000000000000000002000000000000000087
:1087F000341278560090CDABEFCD000000000000A1
:108800000000000000000000000000000000000068
:108810000000000000000000000000000000000058
:108820000000000000000000000000000000000048
:108830000000000000000000123456780000000024
:108840000000000000000000000000000000000028
:108850000000000000000000000000000000000018
:108860000000000000000000000000000000000008
:1088700000000000000000000000000000000000F8
:1088800000000000000000000000000000000000E8
:1088900000000000000000000000000000000000D8
:1088A00000000000000000000000000000000000C8
:0488B00000000000C4
:04000005000140C1F5
:00000001FF
